S015000046696E616C5F50726F6A6563742E73726563EF
S11300000C9485000C94A2000C94A2000C94A20001
S11300100C94A2000C94A2000C94A2000C94A200D4
S11300200C94A2000C94A2000C94A2000C94A200C4
S11300300C94A2000C94A2000C94A2000C94A200B4
S11300400C94A2000C94A2000C94A2000C94A200A4
S11300500C94A200E6036904690469046904C503F5
S11300606904690469046904690469046904F1039D
S1130070DB036904FC03070412041D04280433048D
S11300803E04490454045F04690469046904D00308
S11300906904690469040A03690457036D032B03A3
S11300A0150369048E03BA03690483036904A40372
S11300B04C036904690436032003AF037803410346
S11300C0690469046904620399036904690469049D
S11300D06904690469040A03690457036D032B0363
S11300E0150369048E03BA03690483036904A40332
S11300F04C036904690436032003AF037803410306
S11301006904690469046203990311241FBECFE5DD
S1130110D8E0DEBFCDBF10E0A0E6B0E0E2E0FAE157
S113012002C005900D92AA3AB107D9F720E0AAEAD5
S1130130B0E001C01D92AF3AB207E1F70E946C062D
S11301400C94FF0C0C940000683008F078C0413027
S1130150C1F5813091F028F08230D9F0833029F153
S113016070C02AB381E090E002C0880F991F6A959D
S1130170E2F7822B8ABB81E0089527B381E090E007
S113018002C0880F991F6A95E2F7822B87BB81E032
S1130190089524B381E090E002C0880F991F6A9506
S11301A0E2F7822B84BB81E0089521B381E090E0E3
S11301B002C0880F991F6A95E2F7822B81BB81E008
S11301C00895411140C0813099F028F08230E9F05F
S11301D0833041F13AC02AB381E090E002C0880F35
S11301E0991F6A95E2F7809582238ABB81E008957E
S11301F027B381E090E002C0880F991F6A95E2F767
S11302008095822387BB81E0089524B381E090E048
S113021002C0880F991F6A95E2F78095822384BBF8
S113022081E0089521B381E090E002C0880F991F16
S11302306A95E2F78095822381BB81E0089580E08E
S1130240089580E0089580E0089580E0089568307E
S113025008F078C04130C1F5813091F028F0823047
S1130260D9F0833029F170C02BB381E090E002C053
S1130270880F991F6A95E2F7822B8BBB81E0089562
S113028028B381E090E002C0880F991F6A95E2F7D5
S1130290822B88BB81E0089525B381E090E002C001
S11302A0880F991F6A95E2F7822B85BB81E0089538
S11302B022B381E090E002C0880F991F6A95E2F7AB
S11302C0822B82BB81E00895411140C0813099F0B6
S11302D028F08230E9F0833041F13AC02BB381E059
S11302E090E002C0880F991F6A95E2F780958223F7
S11302F08BBB81E0089528B381E090E002C0880FB1
S1130300991F6A95E2F78095822388BB81E008955E
S113031025B381E090E002C0880F991F6A95E2F747
S11303208095822385BB81E0089522B381E090E02B
S113033002C0880F991F6A95E2F78095822382BBD9
S113034081E0089580E0089580E0089580E00895B4
S113035080E00895813049F028F0823049F08330FC
S113036051F00CC06ABB81E0089567BB81E0089539
S113037064BB81E0089561BB81E0089580E0089545
S1130380813049F028F0823049F0833051F00CC0BC
S11303906BBB81E0089568BB81E0089565BB81E093
S11303A0089562BB81E0089580E00895813089F06A
S11303B028F08230C9F0833011F1089540E064E000
S11303C081E00E94270140E065E081E00E9427016E
S11303D0089541E064E081E00E94270140E065E087
S11303E081E00E942701089540E064E081E00E94DA
S11303F0270141E065E081E00E942701089541E082
S113040064E081E00E94270141E065E081E00E9410
S113041027010895CF93C82F40E062E081E00E9455
S1130420270140E061E081E00E9427016C2F80E019
S11304300E94C00141E060E081E00E9427018AE15E
S11304408A95F1F700C040E060E081E00E94270156
S1130450CF91089541E060E081E00E94A40041E072
S113046062E081E00E94A40041E061E081E00E943A
S1130470A40041E066E081E00E94A40041E064E061
S113048081E00E94A40041E065E081E00E94A400B4
S11304906FEF80E00E94AA0141E066E081E00E94E3
S11304A0270183E00E94D6018EE30E940A0288EBB2
S11304B00E940A021092AC0080E40E940A02109288
S11304C0AB0080EC0E940A028FE30E940A0281E0E2
S11304D00E94D6011092AA000895CF93C82F41E03C
S11304E062E081E00E94270140E061E081E00E9437
S11304F027016C2F80E00E94C00141E060E081E0B0
S11305000E9427018AE18A95F1F700C040E060E08B
S113051081E00E942701CF91089540E066E081E0E8
S11305200E94270185E38A95F1F7000041E066E027
S113053081E00E94270108959F92AF92BF92CF92CB
S1130540DF92EF92FF920F931F93CF93DF93922E3C
S1130550A32EB42EC52ED62EE72EF82ED92FC0E00A
S113056030C08091AC0088540E940A028091AB0094
S1130570805C0E940A020C2F10E0000F111F000F74
S1130580111F000F111F292D3A2D4B2D5C2D6D2DA0
S11305907E2D8F2D9D2F0E94B20C822F0E946D0202
S11305A08091AB008F5F8093AB00803448F08091E2
S11305B0AA00811105C082E00E94D6011092AB000E
S11305C0CF5FC53070F2DF91CF911F910F91FF90F3
S11305D0EF90DF90CF90BF90AF909F900895E82F59
S11305E091E08091AA00811190E081E02091AB001C
S11305F0293308F080E0892B09F488C18E2F90E01C
S1130600FC01B097EB35F10508F063C1E65DFF4FDF
S11306100C949F0C2CE732E141E152E16CE770E06D
S113062080E090E00E949C0254C12FE739E049E049
S113063059E061E070E080E090E00E949C0249C1D2
S11306402FE739E049E159E26FE470E080E090E09F
S11306500E949C023EC12FE739E449E459E461E475
S113066070E080E090E00E949C0233C12EE131E210
S113067041E35EE360E470E080E090E00E949C026D
S113068028C12FE330E440E450E46FE370E080E0FD
S113069090E00E949C021DC12FE732E04CE150E241
S11306A06FE770E080E090E00E949C0212C12EE3AC
S11306B031E441E451E461E470E080E090E00E94C0
S11306C09C0207C123E03CE040E75CE063E070E0AB
S11306D080E090E00E949C02FCC02FE731E441E4FA
S11306E05EE360E070E080E090E00E949C02F1C074
S11306F021E031E04FE751E061E070E080E090E01C
S11307000E949C02E6C02FE738E044E152E261E433
S113071070E080E090E00E949C02DBC02FE738E0AC
S113072048E058E06FE770E080E090E00E949C02AF
S1130730D0C021E631E549E455E463E470E080E0AB
S113074090E00E949C02C5C02FE732E04CE052E0EA
S11307506FE770E080E090E00E949C02BAC02FE452
S113076039E449E459E469EF70E080E090E00E94E4
S11307709C02AFC021E431E44FE751E461E470E04E
S113078080E090E00E949C02A4C023EC33E748E19F
S11307905EEC63EC70E080E090E00E949C0299C003
S11307A024E234E244E254E264E270E080E090E067
S11307B00E949C028EC020E030E740E750E760E0F2
S11307C070E080E090E00E949C0283C020E030E072
S11307D040E050E060E070E080E090E00E949C0225
S11307E078C028E138E148E158E168E170E080E050
S11307F090E00E949C026DC02EE331E549E455E48B
S11308006EE370E080E090E00E949C0262C024E409
S113081032E44FE750E460E470E080E090E00E944E
S11308209C0257C026E431E641E55EE460E470E0F2
S113083080E090E00E949C024CC021E439E449E449
S113084059E466E370E080E090E00E949C0241C0BD
S113085028E134E142E15FE760E170E080E090E0AC
S11308600E949C0236C02FE439E449E451E561E278
S113087070E080E090E00E949C022BC02CE73AE4F8
S113088049E459E461E370E080E090E00E949C0256
S113089020C021E039E449E259E16FE070E080E0F2
S11308A090E00E949C0215C027E739E449E459E42A
S11308B067E770E080E090E00E949C020AC02FE4A9
S11308C039E449E459E46FE770E080E090E00E9485
S11308D09C028091AC0088540E940A028091AB0073
S11308E0805C0E940A0280E00E946D028091AB004D
S11308F08F5F8093AB00803448F08091AA0081110F
S113090005C082E00E94D6011092AB000895CF93F7
S1130910DF93EC0103C00E94EF02219688818111CC
S1130920FACFDF91CF910895CF92DF92EF92FF92A9
S11309300F931F93CF93DF9300D000D01F92CDB7B6
S1130940DEB76B017C0199235CF48DE20E94EF0217
S1130950F094E094D094C094C11CD11CE11CF11C0F
S11309601A821982FE01339683E0DF011D928A9573
S1130970E9F78E010F5F1F4FC701B6012AE030E08F
S113098040E050E00E94800C605DF80161938F01AB
S1130990C22ED32EE42EF52E1C141D041E041F0497
S11309A05CF3D8018E918D010E94EF02CE01019675
S11309B080179107B1F70F900F900F900F900F9041
S11309C0DF91CF911F910F91FF90EF90DF90CF9027
S11309D008958F929F92AF92BF92CF92DF92EF923F
S11309E0FF92CF93DF934B015C010E94460B6B0196
S11309F0E12CF12CC701B6010E9494048EE20E94FE
S1130A00EF02C701B6010E94750B9B01AC01C50141
S1130A10B4010E94670AD0E01CC020E030E040E24C
S1130A2051E40E94030C6B017C010E94460BC62F0B
S1130A3080E38C0F0E94EF026C2F70E080E090E066
S1130A400E94770B9B01AC01C701B6010E94670AA3
S1130A50DF5FD33010F3DF91CF91FF90EF90DF9001
S1130A60CF90BF90AF909F908F900895CF93883090
S1130A7078F4C82F81E00E94D601C093AC0088EBC3
S1130A808C0F0E940A021092AB0080E40E940A02BA
S1130A90CF910895CF93DF93D0E013C08D2F0E94A0
S1130AA0360583E00E94D601C0E008C080E48C0FC4
S1130AB00E940A0280E00E946D02CF5FC034B0F34E
S1130AC0DF5FD83058F30E948D0281E00E94D60186
S1130AD01092AA0080E00E943605DF91CF9108951C
S1130AE09EB59F7B9EBD811107C08EB590E4699F22
S1130AF0B0011124682B6EBD0895811102C01DBC84
S1130B001CBC0895811103C086B597B5089580E093
S1130B1090E00895811108C008B605FE07C088B7A3
S1130B20806288BF81E0089580E0089580E00895A0
S1130B30FC0181B38F7B81BB1FBC1EBC9EB5818130
S1130B40892B8EBD8EB5928140E4949F900111242F
S1130B50282B2EBD29B7938130E2939FC001112425
S1130B60822B89BF1DBC1CBC17BC16BC0895FC019C
S1130B702081211102C00E94980508954F925F922E
S1130B806F927F928F929F92AF92BF92CF92DF9299
S1130B90EF92FF920F931F93CF93DF93EC018B019E
S1130BA088B7806288BF61E080E00E94700580E0C1
S1130BB00E948A058823D9F360E080E00E947005D2
S1130BC080E00E947D0588B7806288BFC12CD12C4B
S1130BD0760109C008B602FE06C088B7846088BFE3
S1130BE08FEFE81AF80A80E00E948A05882391F3BF
S1130BF080E00E948205C80ED91EE11CF11C61E050
S1130C0080E00E94700580E00E947D0588B78062C4
S1130C1088BF06C008B602FE03C088B7846088BFD8
S1130C2080E00E948A058823A9F380E00E9482055F
S1130C304C01A12CB12C2E01612C712CA701960121
S1130C40C301B2010E94700C0E94750B20E030E0D9
S1130C504AE754E40E94030C20E034E244E75BE4F6
S1130C600E94D40AF8016083718382839383C7014D
S1130C70B601680D791D8A1D9B1DA30192010E9476
S1130C80700C0E94750B20E030E04AE754E40E94A7
S1130C90030C20E034E244E75BE40E94D40AF80148
S1130CA06483758386839783DF91CF911F910F911E
S1130CB0FF90EF90DF90CF90BF90AF909F908F9078
S1130CC07F906F905F904F900895811104C0CB0185
S1130CD0BA010E94BE050895CF93DF93CDB7DEB766
S1130CE061970FB6F894DEBF0FBECDBF0E948F0888
S1130CF0FE01319681E1DF011D928A95E9F7CE016B
S1130D0001960E949C086A857B858C859D8520E0E0
S1130D1030E040EA50E40E94D40AAB01BC01CE01A9
S1130D2001960E940D09BFEF21EE84E0B1502040EE
S1130D308040E1F700C00000E2CFFC0187B3886087
S1130D4087BB13BE23B79181990F990F990F922BEB
S1130D50906493BF23B793819295907F922B906276
S1130D6093BF8281843069F018F4833030F012C06C
S1130D709AEF980F943050F00DC093B7892B83BF2E
S1130D8009C093B78150892B83BF04C093B78250A5
S1130D90892B83BF1CBE8381882319F08130A1F085
S1130DA030C060858FEF689FB001112480E090E02F
S1130DB00E94750B20E030E048EC52E40E94D40A13
S1130DC00E94460B6CBF1DC0608570E080E090E01F
S1130DD00E94770B9B01AC0160E070E088EC92E428
S1130DE00E94670A20E030E04FE753E40E94030CBE
S1130DF020E030E048EC52E40E94D40A0E94460B02
S1130E006CBF12BE08958F929F92AF92BF92CF9201
S1130E10DF92EF92FF92CF93DF93EC0188818130D0
S1130E2019F0823029F007C081B3806281BB03C00E
S1130E3081B3806181BB1FBC1EBC8FB582608FBD36
S1130E409EB58981880F880F880F892B80618EBD9C
S1130E508881813019F0823051F010C09FB58B81A8
S1130E608295880F880F807C892B80688FBD9FB501
S1130E708B818295807F892B80628FBD8A818430AB
S1130E8069F018F4833030F012C09AEF980F943060
S1130E9050F00DC09EB5892B8EBD09C09EB5815002
S1130EA0892B8EBD04C09EB58250892B8EBDAE8128
S1130EB0BF8120E034E244EF50E00E94A50C6B01B6
S1130EC07C016C817D8180E090E00E94750B20E0C4
S1130ED030E04AE754E40E94030C4B015C01C70173
S1130EE0B6010E94750BA50194010E94D40A20E06A
S1130EF030E040E85FE30E94670A0E94460B70936B
S1130F00AE006093AD0077BD66BD8881813021F06D
S1130F10823009F447C08BC08B81882319F081305B
S1130F20D1F085C028858091AD009091AE00289FB6
S1130F30B001299F700D112480E090E00E94750B90
S1130F4020E030E048EC52E40E94D40A0E94460BB0
S1130F507BBD6ABD6CC0688570E080E090E00E9453
S1130F60770B9B01AC0160E070E088EC92E40E9496
S1130F70670A6B017C016091AD007091AE0080E066
S1130F8090E00E94750BA70196010E94030C20E0DB
S1130F9030E048EC52E40E94D40A0E94460B7BBD28
S1130FA06ABD45C08B81882319F08130D1F03FC0E0
S1130FB028858091AD009091AE00289FB001299FB3
S1130FC0700D112480E090E00E94750B20E030E069
S1130FD048EC52E40E94D40A0E94460B79BD68BDD5
S1130FE026C0688570E080E090E00E94770B9B014A
S1130FF0AC0160E070E088EC92E40E94670A6B0147
S11310007C016091AD007091AE0080E090E00E94A0
S1131010750BA70196010E94030C20E030E048EC18
S113102052E40E94D40A0E94460B79BD68BD1DBCDF
S11310301CBCDF91CF91FF90EF90DF90CF90BF90D9
S1131040AF909F908F900895FC0181B3806881BB1D
S113105015BC25B59181990F990F990F922B906426
S113106095BD23B793819295907F922B906293BF05
S1131070928188EF890F823018F085B5892B85BD60
S113108013BC8381882319F08130A1F030C06085BE
S11310908FEF689FB001112480E090E00E94750BEF
S11310A020E030E048EC52E40E94D40A0E94460B4F
S11310B063BD1DC0608570E080E090E00E94770B06
S11310C09B01AC0160E070E088EC92E40E94670A46
S11310D020E030E04FE753E40E94030C20E030E0CE
S11310E048EC52E40E94D40A0E94460B63BD14BC2F
S11310F00895FC019081933018F4913020F007C0DA
S1131100933049F00895CF010E949D060895CF01C0
S11311100E9403070895CF010E94240808950E94A5
S11311202A020E944A058BE990E00E94790887E927
S113113090E00E94B70508958F929F92AF92BF925C
S1131140CF92DF92EF92FF920F931F93CF93DF938F
S1131150CDB7DEB728970FB6F894DEBF0FBECDBF6C
S11311608C0119821A821B821C821D821E821F829C
S11311701886AE014F5F5F4F68E070E080E00E9428
S11311806506CD80DE80EF80F884F801C186D286C2
S1131190E386F48689809A80AB80BC8081829282C7
S11311A0A382B482A5019401C701B6010E94670A13
S11311B0F8016583768387839087A701960160E0B1
S11311C070E080E89FE30E94D40AF801658776877F
S11311D08787908B20E030E048EC52E4C501B401ED
S11311E00E94030CA70196010E94D40A0E94460B98
S11311F0F801608328960FB6F894DEBF0FBECDBF0A
S1131200DF91CF911F910F91FF90EF90DF90CF90DE
S1131210BF90AF909F908F900895AF92BF92CF925E
S1131220DF92EF92FF920F931F93CF93DF93CDB78B
S1131230DEB7EC970FB6F894DEBF0FBECDBF5C01EE
S11312406A017B010E944A0580E00E9436058CE019
S1131250E0E6F0E0DE01119601900D928A95E1F747
S1131260FE013D9683E0DF011D928A95E9F7CE01E8
S113127001960E948704F5016585768587859089A6
S11312800E94E90485E0E4EAF0E0DE015096019072
S11312900D928A95E1F7CE0140960E94870481E081
S11312A00E94360587E0EFE6F0E0DE0155960190F6
S11312B00D928A95E1F7FE017C9688E0DF011D928C
S11312C08A95E9F7CE0145960E948704F50160816D
S11312D070E080E090E00E94940480917E00909100
S11312E07F009DA38CA380918000909181009FA397
S11312F08EA318A6CE0184960E94870486E00E94DD
S1131300360510E04EC020E430E44EE752E062E0DF
S113131070E080E090E00E949C021B5F00E00CC043
S113132022E032E042E052E062E070E080E090E0EF
S11313300E949C021B5F0F5FD50111966D917D91F8
S11313408D919C911497A70196010E94D40A0E9442
S1131350460B061728F322E032E04EE750E460E43F
S113136070E080E090E00E949C021B5F00E00CC0F3
S113137020E430E440E450E460E470E080E090E095
S11313800E949C021B5F0F5FF50165817681878156
S11313909085A70196010E94D40A0E94460B061765
S11313A038F3183708F4AFCF85E00E94360520E003
S11313B03EE348E05CE16AE270E080E090E00E9495
S11313C09C0210E00BC028E038E048E058E068E0F8
S11313D070E080E090E00E949C021F5FD5011196AE
S11313E06D917D918D919C911497A70196010E9416
S11313F0D40A0E94460B161730F328E038E048E080
S113140058E068E070E080E090E00E949C0210E008
S11314100BC028E038E048E058E068E070E080E085
S113142090E00E949C021F5FF501658176818781AF
S11314309085A70196010E94D40A0E94460B1617B4
S113144040F32AE23CE148E05EE360E070E080E0E3
S113145090E00E949C0284E00E94360588E0E3E864
S1131460F0E0DE01999601900D928A95E1F7FE0174
S1131470F19687E0DF011D928A95E9F7CE018996FE
S11314800E948704F50161857285838594850E9495
S1131490E90485E0E2E9F0E0DE01D89601900D92DE
S11314A08A95E1F7CE01C8960E948704EC960FB6A0
S11314B0F894DEBF0FBECDBFDF91CF911F910F9186
S11314C0FF90EF90DF90CF90BF90AF900895505869
S11314D0BB27AA270E947F0A0C94C90B0E94BB0B4E
S11314E038F00E94C20B20F039F49F3F19F426F41F
S11314F00C94B80B0EF4E095E7FB0C94B20BE92FB7
S11315000E94DA0B58F3BA1762077307840795072A
S113151020F079F4A6F50C94FC0B0EF4E0950B2E58
S1131520BA2FA02D0B01B90190010C01CA01A00131
S11315301124FF27591B99F0593F50F4503E68F18C
S11315401A16F040A22F232F342F4427585FF3CFCD
S1131550469537952795A795F0405395C9F77EF49E
S11315601F16BA0B620B730B840BBAF09150A1F0E7
S1131570FF0FBB1F661F771F881FC2F70EC0BA0F6D
S1131580621F731F841F48F4879577956795B795F5
S1131590F7959E3F08F0B0CF9395880F08F09927F0
S11315A0EE0F9795879508950E94E80A0C94C90B4D
S11315B00E94C20B58F00E94BB0B40F029F45F3F1D
S11315C029F00C94B20B51110C94FD0B0C94B80B34
S11315D00E94DA0B68F39923B1F3552391F3951B19
S11315E0550BBB27AA2762177307840738F09F5F40
S11315F05F4F220F331F441FAA1FA9F335D00E2EAD
S11316003AF0E0E832D091505040E695001CCAF719
S11316102BD0FE2F29D0660F771F881FBB1F2617DC
S113162037074807AB07B0E809F0BB0B802DBF01B3
S1131630FF2793585F4F3AF09E3F510578F00C9482
S1131640B20B0C94FD0B5F3FE4F3983ED4F3869504
S113165077956795B795F7959F5FC9F7880F911DA3
S11316609695879597F90895E1E0660F771F881F8F
S1131670BB1F621773078407BA0720F0621B730B42
S1131680840BBA0BEE1F88F7E09508950E94E20BD5
S113169088F09F5798F0B92F9927B751B0F0E1F02F
S11316A0660F771F881F991F1AF0BA95C9F714C0DF
S11316B0B13091F00E94FC0BB1E008950C94FC0B46
S11316C0672F782F8827B85F39F0B93FCCF3869518
S11316D077956795B395D9F73EF490958095709575
S11316E061957F4F8F4F9F4F0895E89409C097FBF2
S11316F03EF490958095709561957F4F8F4F9F4FE5
S11317009923A9F0F92F96E9BB279395F695879528
S113171077956795B795F111F8CFFAF4BB0F11F4EB
S113172060FF1BC06F5F7F4F8F4F9F4F16C0882392
S113173011F096E911C0772321F09EE8872F762FC8
S113174005C0662371F096E8862F70E060E02AF009
S11317509A95660F771F881FDAF7880F96958795F5
S113176097F9089597F99F6780E870E060E008951D
S11317709FEF80EC089500240A94161617061806A5
S11317800906089500240A94121613061406050681
S11317900895092E0394000C11F4882352F0BB0F12
S11317A040F4BF2B11F460FF04C06F5F7F4F8F4F75
S11317B09F4F089557FD9058440F551F59F05F3FB0
S11317C071F04795880F97FB991F61F09F3F79F05F
S11317D087950895121613061406551FF2CF4695E1
S11317E0F1DF08C0161617061806991FF1CF869563
S11317F07105610508940895E894BB276627772747
S1131800CB0197F908950E94160C0C94C90B0E9401
S1131810BB0B38F00E94C20B20F0952311F00C94FE
S1131820B20B0C94B80B11240C94FD0B0E94DA0B30
S113183070F3959FC1F3950F50E0551F629FF0011F
S1131840729FBB27F00DB11D639FAA27F00DB11D38
S1131850AA1F649F6627B00DA11D661F829F2227C1
S1131860B00DA11D621F739FB00DA11D621F839F48
S1131870A00D611D221F749F3327A00D611D231F1E
S1131880849F600D211D822F762F6A2F11249F576C
S113189050409AF0F1F088234AF0EE0FFF1FBB1F6F
S11318A0661F771F881F91505040A9F79E3F51052E
S11318B080F00C94B20B0C94FD0B5F3FE4F3983E64
S11318C0D4F3869577956795B795F795E7959F5FD8
S11318D0C1F7FE2B880F911D9695879597F908956A
S11318E0DB018F939F930E94A50CBF91AF91A29FA0
S11318F0800D911DA39F900DB29F900D112408950A
S1131900052E97FB1EF400940E94970C57FD07D0F8
S11319100E94CE0C07FC03D04EF40C94970C509507
S11319204095309521953F4F4F4F5F4F08959095C7
S11319308095709561957F4F8F4F9F4F0895EE0F5F
S1131940FF1F0590F491E02D09940E94F00CA59FCF
S1131950900DB49F900DA49F800D911D11240895A6
S113196097FB10F8169400080F93083098F008506D
S1131970232F342F452F562F672F782F892F902D03
S1131980F4CF0594979587957795679557954795DF
S1131990379527950A95AAF70F910895A1E21A2E73
S11319A0AA1BBB1BFD010DC0AA1FBB1FEE1FFF1FFF
S11319B0A217B307E407F50720F0A21BB30BE40B4F
S11319C0F50B661F771F881F991F1A9469F7609596
S11319D07095809590959B01AC01BD01CF01089550
S11319E0A29FB001B39FC001A39F700D811D11245C
S11319F0911DB29F700D811D1124911D0895F894BD
S1051A00FFCF12
S1131A024672657175656E63793D0000000000449D
S1131A127574793D000000000000000000002025DC
S1131A220000002054696D653D00000000000000C4
S1131A320000206D7300000002000000010201009A
S10D1A420104005A206B487A0000EA
S9030000FC
